:020000040000FA
:060000000A128A110C280F
:10000800FE00030EF1000A08F2000A128A115229B2
:100018000A128A110F28F901FA0183010A128A11BA
:100028001029F80036283F30831203139F059B28B8
:10003800831203131F083F3940389F009B288312FF
:1000480003131F083F3980389F009B28C030831254
:1000580003139F049B28831203131F083F3980381A
:100068009F009B287808F600F7017708003A0319E3
:100078003E282F287608013A03191728033A03194E
:100088001C28013A03192328073A03192A282F287C
:10009800C3309F05D5281F08C33904389F00D528C9
:1000A8001F08C33908389F00D5281F08C3390C38E2
:1000B8009F00D5281F08C33910389F00D5281F086E
:1000C800C33914389F00D5281F08C33918389F0032
:1000D800D5281F08C3391C389F00D5281F08C339E5
:1000E80020389F00D5281F08C33924389F00D528F9
:1000F8001F08C33928389F00D5281F08C3392C3852
:100108009F00D5281F08C33930389F00D5281F08FD
:10011800C33934389F00D5281F08C33938389F00A1
:10012800D5283C309F04D528C3309F05D5287308AF
:10013800F600F7017708003A0319A32898287608EB
:10014800003A03194C28013A03194F28033A0319B6
:100158005428013A03195928073A03195E28013A25
:1001680003196328033A03196828013A03196D280B
:100178000F3A03197228013A03197728033A031929
:100188007C28013A03198128073A03198628013A7D
:1001980003198B28033A03199028013A0319952863
:1001A80098287403031DD928DA28DE288316031338
:1001B8009F17F128831603139F13F1281F129F120C
:1001C80007291F169F1607291F129F1607291F1692
:1001D8009F1207291F129F1207297508F600F701B9
:1001E8007708003A0319F928EE287608013A031926
:1001F800E228033A0319E528013A0319E828073ADF
:100208000319EB28EE28831203131F148B170B17FF
:10021800831603130C1708000A128A113D210A12CB
:100228008A11023083120313A0002008F300F4019E
:10023800F50103300A128A1115200A128A11831255
:1002480003139F147903031D2A292B293729F90140
:100258009F3083120313A0003129A00B30293429C1
:10026800831203139F147A08880026290A128A1118
:100278000C288316031788018901081583160313B0
:100288008801870185010515071687158312031351
:10029800880187018B170B17F901080083120313D4
:1002A8000C1F572958295F290C131E08F0007008E5
:1002B800FA00F901F90A72088A00710E8300FE0E2D
:0402C8007E0E09009D
:04400E00F120FF3F5F
:00000001FF
