:020000040000FA
:060000000A128A110C280F
:10000800FE00030EF2000A08F3000A128A11692999
:100018000A128A110F28F701F801F90183010A125F
:100028008A11152983120313A2002F283F309F0538
:1000380094281F083F3940389F0094281F083F39EB
:1000480080389F009428C0309F0494281F083F39A7
:1000580080389F0094282208A000A1012108003AB6
:10006800031937282A282008013A03191A28033ABD
:1000780003191D28013A03192228073A03192728CA
:100088002A28C3309F05CE281F08C33904389F008B
:10009800CE281F08C33908389F00CE281F08C33947
:1000A8000C389F00CE281F08C33910389F00CE286F
:1000B8001F08C33914389F00CE281F08C3391838C1
:1000C8009F00CE281F08C3391C389F00CE281F0860
:1000D800C33920389F00CE281F08C33924389F0011
:1000E800CE281F08C33928389F00CE281F08C339D7
:1000F8002C389F00CE281F08C33930389F00CE28DF
:100108001F08C33934389F00CE281F08C339383830
:100118009F00CE283C309F04CE28C3309F05CE28B0
:100128007408A000A1012108003A03199C2891280D
:100138002008003A03194528013A03194828033AC8
:1001480003194D28013A03195228073A0319572869
:10015800013A03195C28033A03196128013A031983
:1001680066280F3A03196B28013A03197028033AD5
:1001780003197528013A03197A28073A03197F28C1
:10018800013A03198428033A03198928013A031903
:100198008E2891287503031DD228D328D7288316C3
:1001A80003139F17F428831603139F13F428831649
:1001B80003131F129F120C29831603131F169F1671
:1001C8000C29831603131F129F160C298316031379
:1001D8001F169F120C29831603131F129F120C2936
:1001E800760883120313A000A1012108003A03191D
:1001F800FE28EF282008013A0319DB28033A0319DF
:10020800E028013A0319E528073A0319EA28EF28F4
:10021800831203131F148B170B17831603130C1762
:1002280008000A128A1193210A128A1102308312D5
:100238000313A3002308F400F501F60103300A12A2
:100248008A1116200A128A11831203139F14780345
:10025800031D2F2930293C29F8019F3083120313ED
:10026800A3003629A30B35293929831203139F14B8
:100278000D307902031841294229482983120313B2
:100288000815881008105F290D307902031C4D29C4
:100298004E295A29133079020318532954295A2907
:1002A800831203130811881408105F29831203139B
:1002B80008118810081479080A128A11E2210A1212
:1002C8008A112B290A128A110C28831203130C1F76
:1002D8006E296F2977290C131E08F1007108F9009F
:1002E800F801F80A8C298C1D7A297B298C290A1295
:1002F8008A11D2210A128A11F1007108F7007908CF
:100308000A128A11E8210A128A11831203138C1126
:1003180073088A00720E8300FE0E7E0E0900831693
:1003280003178801890108158316031388018701BB
:10033800850186010515851607168715831203138F
:100348008801870186018B170B17F801F401F50165
:10035800F60124300A128A11B4210A128A110800FF
:1003680083120313A0008316031387128312031347
:10037800201DBF29C029C6297608831603139400B7
:100388008715CC2974087604831603139400871103
:100398008312031320087504940008000A128A11B6
:1003A800DB210A128A11831203131308080083162B
:1003B8000313141CE029E129DB290800F400740860
:1003C8008312031393000800F000700883120313CC
:0403D8009300080086
:04400E00F120FF3F5F
:00000001FF
