:020000040000FA
:060000000A128A110C280F
:10000800FE00030EF1000A08F2000A128A111428F1
:100018000A128A110F28F30183010A128A1149284A
:100028000B1C172818282A2883120313061C1D28BE
:100038001E2823280130F000700888072928861C0C
:10004800262827282928013088020B1072088A00E0
:10005800710E8300FE0E7E0E0900831603178801B9
:1000680089018316031388018701061486148312F5
:100078000313880187018B170B178B150B10831639
:10008800031316149614F30108000A128A1131207A
:0C0098000A128A114E280A128A110C2844
:04400E00F120FF3F5F
:00000001FF
