:020000040000FA
:060000000A128A110C280F
:10000800FE00030EF3000A08F4000A128A111428ED
:100018000A128A110F28F50183010A128A1155283C
:100028000B1C1728182836280330F2000830F10076
:100038007730F000F00B1E28F10B1E28F20B1E285B
:1000480083120313061C29282A282F280130F000C0
:100058007008F5073528861C3228332835280130E2
:10006800F5020B1074088A00730E8300FE0E7E0ED4
:100078000900831603178801890183160313880171
:1000880087010614861483120313880187018B17CE
:100098000B178B150B108316031316149614F50102
:1000A80008000A128A113D200A128A117508831263
:0C00B800031388005A280A128A110C2831
:04400E00F120FF3F5F
:00000001FF
