:020000040000FA
:060000000A128A110C280F
:10000800FE00030EF4000A08F5000A128A111728E8
:100018000A128A110F28F70183120313A30183011F
:100028000A128A119D280B1C1A281B283A288312A9
:100038000313061C2028212826280130F100710806
:1000480088072C28861C29282A282C280130880271
:100058000330F3000830F2007730F100F10B32285A
:10006800F20B3228F30B32280B1053288312031398
:100078008C1D3F28402853280A128A11AE200A12E4
:100088008A11F1007108F7008312031308080A1295
:100098008A11C4200A128A11831203138C1175085D
:1000A8008A00740E8300FE0E7E0E09008316031765
:1000B80088018901831603138801870185010614C5
:1000C8008614851683120313880187018B170B1773
:1000D8008B150B108316031316149614831203132F
:1000E800A301A001A101A20124300A128A117F20D4
:1000F8000A128A110800F600831603138712761D68
:10010800862887288F28831203132208831603134F
:100118009400871597288312031320082204831656
:1001280003139400871176088312031321049400A3
:1001380008000A128A115A200A128A11831203131C
:1001480008080A128A11BE200A128A11A2280A1265
:100158008A110C280A128A11B7200A128A118312EE
:1001680003131308080083160313141CBC28BD28A6
:10017800B7280800F60076088312031393000800D6
:0C018800F00070088312031393000800BD
:04400E00F120FF3F5F
:00000001FF
