:020000040000FA
:060000000A128A110C280F
:10000800FE00030EF1000A08F2000A128A11992F65
:100018000A128A110F28F801F901FA018312031351
:10002800DD01DE0183010A128A117A2C831203137F
:100038002D088039B2003208B7002D08B200320707
:10004800B3003308BD00AC1F2A282B282C283D14E8
:100058003D0803193028312840283D0A031D35285A
:1000680036283E280030AD000030AC000030AB0030
:100078000030AA00AC1748280030AD000030AC00B2
:100088000030AB000030AA0031088039B2003208D5
:10009800B7063108B2003207B3003308BC00B01FFE
:1000A8005628572858283C143C0803195C285D2812
:1000B8006C283C0A031D612862286A280030B100B8
:1000C8000030B0000030AF000030AE00B017742828
:1000D8000030B1000030B0000030AF000030AE009A
:1000E8003C080319782879287E283D08031D7D28B7
:1000F8007E2887280030AD000030AC000030AB000F
:100108000030AA007A2B2A08B2003208F30030081F
:100118000A128A1147270A128A11740883120313D4
:10012800C3007308C2004208B200B301B401B501AC
:100138003508BB003408BA003308B9003208B800E3
:100148004308B200B301B401B5013508C100340851
:10015800C0003308BF003208BE002B08B2003208C6
:10016800F3002F080A128A1147270A128A11740805
:1001780083120313C3007308C2004208B200B3011C
:10018800B401B5013208B807330803110318013E5A
:100198000319CF28B907340803110318013E0319BE
:1001A800D628BA07350803110318013E0319DD28BC
:1001B800BB074308B200B301B401B5013208BE075A
:1001C800330803110318013E0319EB28BF0734084D
:1001D80003110318013E0319F228C007350803115B
:1001E8000318013E0319F928C1072C08B200320888
:1001F800F3002E080A128A1147270A128A11740876
:1002080083120313C3007308C2004208B200B3018B
:10021800B401B5013208B807330803110318013EC9
:1002280003191729B907340803110318013E0319E4
:100238001E29BA07350803110318013E0319252999
:10024800BB074308B200B301B401B5013208BE07C9
:10025800330803110318013E03193329BF07340873
:1002680003110318013E03193A29C0073508031181
:100278000318013E03194129C1070830B2000310D1
:10028800B80DB90DBA0DBB0DB20B43292B08B2003E
:100298003208F3002E080A128A1147270A128A1117
:1002A800740883120313C3007308C2004208B20023
:1002B8004308B300B401B5013208B8073308031185
:1002C8000318013E03196929B907340803110318F3
:1002D800013E03197029BA07350803110318013EB6
:1002E80003197729BB072A08B2003208F3002F0840
:1002F8000A128A1147270A128A11740883120313F3
:10030800C3007308C2004208B2004308B300B40136
:10031800B5013208B807330803110318013E031961
:100328009629B907340803110318013E03199D29BA
:10033800BA07350803110318013E0319A429BB079E
:100348000830B2000310B80DB90DBA0DBB0DB20BD1
:10035800A6292A08B2003208F3002E080A128A11C8
:1003680047270A128A11740883120313C3007308FB
:10037800C2004208B2004308B300B401B501320814
:10038800B807330803110318013E0319CC29B9072C
:10039800340803110318013E0319D329BA07350895
:1003A80003110318013E0319DA29BB072B08B20011
:1003B8003208F30030080A128A1147270A128A11F4
:1003C800740883120313C3007308C2004208B20002
:1003D8004308B300B401B5013208BE07330803115E
:1003E8000318013E0319F929BF073408031103183C
:1003F800013E0319002AC007350803110318013EFE
:100408000319072AC1072C08B2003208F3002F0885
:100418000A128A1147270A128A11740883120313D1
:10042800C3007308C2004208B2004308B300B40115
:10043800B5013208BE07330803110318013E03193A
:10044800262ABF07340803110318013E03192D2A71
:10045800C007350803110318013E0319342AC107E0
:100468002C08B2003208F30030080A128A11472714
:100478000A128A11740883120313C3007308C20096
:100488004208B2004308B300B401B50108300310B4
:10049800B20DB30DB40DB50DFF3E031D4B2A320846
:1004A800BE07330803110318013E03195C2ABF076E
:1004B800340803110318013E0319632AC0073508DD
:1004C80003110318013E03196A2AC1073808B2004C
:1004D8003908B3003A08B4003B08B50018300310D7
:1004E800B50CB40CB30CB20CFF3E031D732A3208D2
:1004F800BE07330803110318013E0319842ABF07F6
:10050800340803110318013E03198B2AC007350864
:1005180003110318013E0319922AC1070830B200DB
:100528000310B80DB90DBA0DBB0DB20B942A3D08D6
:100538003C07B200B301B30D3208823EC200330853
:100548000318013EFF3EC300C62A0130B200031063
:10055800BE0DBF0DC00DC10DB20BAB2ABB1FB52A16
:10056800B62AB72A3E140130B2000310B80DB90DEF
:10057800BA0DBB0DB20BB92AFF30C2070318C30A64
:10058800FF30C307C01FC92ACA2AA92ABC01BB1F3A
:10059800CE2ACF2AEB2AFF303805B200FF303905C2
:1005A800B300FF303A05B4007F303B05B50035088D
:1005B8003404330432040319E22AE32AE62ABC018C
:1005C800BC0AEB2A3E1CE92AEA2AEB2AE32A3C0861
:1005D8000319EF2AF02A212B0130BE070030031837
:1005E8000130BF07003003180130C007003003187E
:1005F8000130C107411C012B022B212B3E08B20000
:100608003F08B3004008B4004108B5000130B60007
:10061800350DB50CB40CB30CB20CB60B0C2B35085D
:10062800C1003408C0003308BF003208BE000130E2
:10063800C2070318C30A0030C3074308803AFF0003
:1006480080307F02031D2A2BFF304202031C2D2B12
:100658002E2B392B7F3083120313C1008030C0004A
:100668000030BF000030BE006E2B83120313430816
:10067800803AFF0080307F02031D442B0130420284
:100688000318472B482B542B003083120313C10047
:100698000030C0000030BF000030BE00B7016E2B34
:1006A800831203134208B2003208BD00FF30BE05B2
:1006B800FF30BF057F30C0050030C1053D1C652BEC
:1006C800662B672BC0173D08B2000310320CB3002D
:1006D8003308C1003708B2003208C1044108AD0030
:1006E8004008AC003F08AB003E08AA00080083128F
:1006F8000313D8005008D100D201D301D401540803
:10070800F6005308F5005208F4005108F3000130D0
:100718000A128A1141250A128A11760883120313D4
:10072800B1007508B0007408AF007308AE003F3020
:10073800AD00FB30AC000230AB000C30AA000A124E
:100748008A111A200A128A11831203132D08C7006E
:100758002C08C6002B08C5002A08C4000A128A11F2
:10076800FD250A128A11831203134508DA0044088A
:10077800D9006430F3000030F4005A08F600590834
:10078800F5000A128A11D6260A128A1173088312F2
:100798000313D1005108D6005608D100D2015108E0
:1007A800F3005208F4009C30F500FF30F6000A12FE
:1007B8008A111C270A128A11831203135908730716
:1007C800D9005A0803185A0A7407DA000A30F300E5
:1007D8000030F4005A08F6005908F5000A128A1188
:1007E800D6260A128A11730883120313D1005108FE
:1007F800D7005708D100D2015108F3005208F4007D
:10080800F630F500FF30F6000A128A111C270A128A
:100818008A118312031359087307D9005A08031859
:100828005A0A7407DA005908D1005108D500560849
:10083800303ED1005108D6005708303ED10051084B
:10084800D7005508303ED1005108D5004F08D100D7
:100858005108F70058080A128A11B8270A128A1193
:100868008312031356080A128A15BA270A128A1124
:10087800831203134F08013ED1005108F7005808AE
:100888000A128A11B8270A128A1110300A128A111C
:1008980070270A128A11831203134F08023ED100EF
:1008A8005108F70058080A128A11B8270A128A1143
:1008B8008312031357080A128A15BA270A128A11D3
:1008C800831203134F08033ED1005108F70058085C
:1008D8000A128A11B8270A128A11831203135508BB
:1008E8000A128A15BA270A128A1108000A128A11EE
:1008F800D6270A128A110A128A1179260A128A112F
:100908008312031385158510033083120313DC004B
:100918009730DB00DB0B8E2CDC0B8E2C01300A129F
:100928008A1596270A128A110A128A15A3270A120B
:100938008A1183120313DB005B08FA000330831269
:100948000313DC009730DB00DB0BA82CDC0BA82C96
:100958008312031385140511033083120313DC007B
:100968009730DB00DB0BB62CDC0BB62C02300A12FE
:100978008A1596270A128A110A128A15A3270A12BB
:100988008A1183120313DB005B08F900033083121A
:100998000313DC009730DB00DB0BD02CDC0BD02CF6
:1009A8008312031305158511033083120313DC002A
:1009B8009730DB00DB0BDE2CDC0BDE2C03300A125D
:1009C8008A1596270A128A110A128A15A3270A126B
:1009D8008A1183120313DB005B08F80003308312CB
:1009E8000313DC009730DB00DB0BF82CDC0BF82C56
:1009F8000A128A11F3270A128A11F701F70A01303D
:100A08000A128A11B8270A128A1101300A128A11A9
:100A180070270A128A1183120313CF01CF0A7A08AA
:100A2800DB005B08D00002300A128A117B230A120D
:100A38008A11063083120313DB005B08CF007908A4
:100A4800DC005C08D00002300A128A117B230A12EB
:100A58008A110B3083120313DB005B08CF00780880
:100A6800DC005C08D00002300A128A117B230A12CB
:100A78008A11842C0A128A110C2883120313A400E9
:100A880024080319482D492D5D2DF61F4C2D4D2D99
:100A98005D2D7309A6007409A7007509A8007609D9
:100AA800A900A60A0319A70A0319A80A0319A90A7B
:100AB800652D7608A9007508A8007408A7007308B2
:100AC800A6007608750474047304031D6C2D6D2D3F
:100AD800762D0030F6000030F5000030F4000030CC
:100AE800F300FC2D9630A0002008A500882D0130C9
:100AF800A0002008A50701300310A90CA80CA70C1A
:100B0800A60CFF3E031D802DFE302905031D8D2DEB
:100B18008E2D7B2DAA2D0130A0002008A5070130BD
:100B2800A607003003180130A7070030031801306A
:100B3800A807003003180130A90701300310A90CD9
:100B4800A80CA70CA60CFF3E031DA22DFF302905FB
:100B5800031DAF2DB02D8F2DBC2D0130A502013006
:100B6800A0000310A60DA70DA80DA90DA00BB52D6B
:100B7800A81BBF2DC02DC62D023025020318C52D78
:100B8800C62DB12D2518C92DCA2DD22DFF30A60589
:100B9800FF30A7057F30A805FF30A9050310A50C75
:100BA8002508A000A101A201A30118300310A00D7F
:100BB800A10DA20DA30DFF3E031DDA2D2008A604EA
:100BC8002108A7042208A8042308A9042408031953
:100BD800EE2DEF2DF42DF61FF22DF32DF42DA91780
:100BE8002908F6002808F5002708F4002608F3006D
:100BF8000800031083120313460D470DC800480868
:100C0800CE004E08031D092E0A2E132E0030C700F1
:100C18000030C6000030C5000030C400782E4408FB
:100C2800C8004508C9004608CA004708CB001F305D
:100C38000310CB0CCA0CC90CC80CFF3E031D1C2E9C
:100C48004808CC004C08CD00C617FF30C405FF305B
:100C5800C505FF30C6050030C7059630CE02CE1F49
:100C6800362E372E512E4E08803A973E03183D2EC9
:100C78003E2E3F2E0A2E01300310C70CC60CC50CA1
:100C8800C40CFF3E031D402E0130C8004808CE07A3
:100C9800031D4F2E502E3F2E682E20304E02031C6F
:100CA800562E572E632E0A2E0130C8000310C40D8D
:100CB800C50DC60DC70DC80B5A2E0130CE024E0801
:100CC800031D672E682E582E4D0803196C2E6D2EA5
:100CD800782EC409C509C609C709C40A0319C50A73
:100CE8000319C60A0319C70A080027308312031319
:100CF800A100F430A000A00B7F2EA10B7F2E0000D6
:100D080000300A128A1590270A128A113430831289
:100D18000313A100F130A000A00B902EA10B902E80
:100D280030300A128A15E6270A128A110D3083120A
:100D38000313A100FB30A000A00BA02EA10BA02E36
:100D480030300A128A15E6270A128A11693083128E
:100D58000313A000A00BAE2EB12E30300A128A1554
:100D6800E6270A128A1138300A128A15E6270A126B
:100D78008A1110300A128A15E6270A128A110130E0
:100D88000A128A15E6270A128A1106300A128A15EB
:100D9800E6270A128A110C300A128A15E6270A1267
:100DA8008A11080083120313A101A20173087404B5
:100DB8000319DF2EE02E172FA001A00AEE2E013016
:100DC8000310F30DF40DFF3E031DE42E0130F70070
:100DD8007708A007F41FF12EF22EE32E013003103E
:100DE800A10DA20DFF3E031DF32E74087602031D0C
:100DF800FF2E73087502031C022F032F0A2F730896
:100E0800F5027408031CF603F602211401300310DE
:100E1800F40CF30CFF3E031D0B2F0130A002031D41
:100E2800162F172FF22E2208F4002108F3000800CD
:100E380083120313A001A101731C232F242F2C2F2D
:100E4800750883120313A0070318A10A7608A107DF
:100E580001300310F50DF60DFF3E031D2D2F013057
:100E68000310F40CF30CFF3E031D342F73087404B5
:100E7800031D3F2F402F202F831203132108F40056
:100E88002008F300080083120313A400A001A101A5
:100E98007308F500F6017508A2007608A300241C63
:100EA800562F572F5D2F2208A0070318A10A2308E1
:100EB800A10701300310A20DA30DFF3E031D5E2FF5
:100EC8000310A40C2408031D6A2F6B2F532F21082D
:100ED800F4002008F300080083120313A200A00105
:100EE800A1018B2F2008220784000A128A150020EE
:100EF8000A128A110A128A15BA270A128A110130AF
:100F080083120313A0070318A10A0030A1072008C1
:100F1800220784000A128A1500200A128A11003A50
:100F2800031D972F982F762F0800831203138C1E0A
:100F38009E2F9F2FB12F0A128A15AC270A128A11E9
:100F4800F000700883120313DD00C730F000F00BC7
:100F5800AB2FAE2F831203138C1272088A00710E06
:100F68008300FE0E7E0E090083120313A0002003E7
:100F7800031DBF2FC02FC82F77087F3E0A128A157E
:100F8800E6270A128A11D52F02302006031DCD2F1D
:100F9800CE2FD52F7708BF3E0A128A15E6270A12E8
:100FA8008A1108008316031387010716871788011B
:100FB80083160317880189018316031385018601A7
:100FC800FA01F901F8018B170B17F301F401F50188
:100FD80020300A128A15D0270A128A110800003018
:100FE8000A128A15E6270A128A1101300A128A158E
:100FF800E6270A128A11080008308A000408840AC1
:10100800820700342034533431343A3420342034C5
:10101800533432343A3420342034533433343A3469
:0610280000342E340034F8
:101F2000F30073088312031388000800F30073089A
:101F3000831203139300080083160313141CA12FAC
:101F4000A22F9C2F08000A128A159C270A128A15B4
:101F5000831203131308080083120313981CB12F74
:101F6000B22FB42F181218168C1EB72FB82FB42FFB
:101F70001A080800F50083120313061475080A12E4
:101F80008A1590270A128A158312031386141A30B1
:101F9000F400F40BC92F000083120313861008000D
:101FA000F600831603138712761DD72FD82FDC2F48
:101FB000750894008715E02F730875049400871145
:101FC000760874048312031394000800F600831249
:101FD0000313061076080A128A1590270A128A152A
:101FE0008312031386140B30F5006230F400F40BF7
:101FF000F72FF50BF72F000083120313861008004C
:04400E00F120FF3F5F
:00000001FF
