:020000040000FA
:060000000A128A110C280F
:10000800FE00030EF1000A08F2000A128A151E2FDC
:100018000A128A110F28F801F901FA018312031351
:10002800E001E10183010A128A118E2D8312031364
:100038002D088039B2003208B7002D08B200320707
:10004800B3003308BD00AC1F2A282B282C283D14E8
:100058003D0803193028312840283D0A031D35285A
:1000680036283E280030AD000030AC000030AB0030
:100078000030AA00AC1748280030AD000030AC00B2
:100088000030AB000030AA0031088039B2003208D5
:10009800B7063108B2003207B3003308BC00B01FFE
:1000A8005628572858283C143C0803195C285D2812
:1000B8006C283C0A031D612862286A280030B100B8
:1000C8000030B0000030AF000030AE00B017742828
:1000D8000030B1000030B0000030AF000030AE009A
:1000E8003C080319782879287E283D08031D7D28B7
:1000F8007E2887280030AD000030AC000030AB000F
:100108000030AA007A2B2A08B2003208F30030081F
:100118000A128A1566270A128A11740883120313B1
:10012800C3007308C2004208B200B301B401B501AC
:100138003508BB003408BA003308B9003208B800E3
:100148004308B200B301B401B5013508C100340851
:10015800C0003308BF003208BE002B08B2003208C6
:10016800F3002F080A128A1566270A128A117408E2
:1001780083120313C3007308C2004208B200B3011C
:10018800B401B5013208B807330803110318013E5A
:100198000319CF28B907340803110318013E0319BE
:1001A800D628BA07350803110318013E0319DD28BC
:1001B800BB074308B200B301B401B5013208BE075A
:1001C800330803110318013E0319EB28BF0734084D
:1001D80003110318013E0319F228C007350803115B
:1001E8000318013E0319F928C1072C08B200320888
:1001F800F3002E080A128A1566270A128A11740853
:1002080083120313C3007308C2004208B200B3018B
:10021800B401B5013208B807330803110318013EC9
:1002280003191729B907340803110318013E0319E4
:100238001E29BA07350803110318013E0319252999
:10024800BB074308B200B301B401B5013208BE07C9
:10025800330803110318013E03193329BF07340873
:1002680003110318013E03193A29C0073508031181
:100278000318013E03194129C1070830B2000310D1
:10028800B80DB90DBA0DBB0DB20B43292B08B2003E
:100298003208F3002E080A128A1566270A128A11F4
:1002A800740883120313C3007308C2004208B20023
:1002B8004308B300B401B5013208B8073308031185
:1002C8000318013E03196929B907340803110318F3
:1002D800013E03197029BA07350803110318013EB6
:1002E80003197729BB072A08B2003208F3002F0840
:1002F8000A128A1566270A128A11740883120313D0
:10030800C3007308C2004208B2004308B300B40136
:10031800B5013208B807330803110318013E031961
:100328009629B907340803110318013E03199D29BA
:10033800BA07350803110318013E0319A429BB079E
:100348000830B2000310B80DB90DBA0DBB0DB20BD1
:10035800A6292A08B2003208F3002E080A128A15C4
:1003680066270A128A11740883120313C3007308DC
:10037800C2004208B2004308B300B401B501320814
:10038800B807330803110318013E0319CC29B9072C
:10039800340803110318013E0319D329BA07350895
:1003A80003110318013E0319DA29BB072B08B20011
:1003B8003208F30030080A128A1566270A128A11D1
:1003C800740883120313C3007308C2004208B20002
:1003D8004308B300B401B5013208BE07330803115E
:1003E8000318013E0319F929BF073408031103183C
:1003F800013E0319002AC007350803110318013EFE
:100408000319072AC1072C08B2003208F3002F0885
:100418000A128A1566270A128A11740883120313AE
:10042800C3007308C2004208B2004308B300B40115
:10043800B5013208BE07330803110318013E03193A
:10044800262ABF07340803110318013E03192D2A71
:10045800C007350803110318013E0319342AC107E0
:100468002C08B2003208F30030080A128A156627F1
:100478000A128A11740883120313C3007308C20096
:100488004208B2004308B300B401B50108300310B4
:10049800B20DB30DB40DB50DFF3E031D4B2A320846
:1004A800BE07330803110318013E03195C2ABF076E
:1004B800340803110318013E0319632AC0073508DD
:1004C80003110318013E03196A2AC1073808B2004C
:1004D8003908B3003A08B4003B08B50018300310D7
:1004E800B50CB40CB30CB20CFF3E031D732A3208D2
:1004F800BE07330803110318013E0319842ABF07F6
:10050800340803110318013E03198B2AC007350864
:1005180003110318013E0319922AC1070830B200DB
:100528000310B80DB90DBA0DBB0DB20B942A3D08D6
:100538003C07B200B301B30D3208823EC200330853
:100548000318013EFF3EC300C62A0130B200031063
:10055800BE0DBF0DC00DC10DB20BAB2ABB1FB52A16
:10056800B62AB72A3E140130B2000310B80DB90DEF
:10057800BA0DBB0DB20BB92AFF30C2070318C30A64
:10058800FF30C307C01FC92ACA2AA92ABC01BB1F3A
:10059800CE2ACF2AEB2AFF303805B200FF303905C2
:1005A800B300FF303A05B4007F303B05B50035088D
:1005B8003404330432040319E22AE32AE62ABC018C
:1005C800BC0AEB2A3E1CE92AEA2AEB2AE32A3C0861
:1005D8000319EF2AF02A212B0130BE070030031837
:1005E8000130BF07003003180130C007003003187E
:1005F8000130C107411C012B022B212B3E08B20000
:100608003F08B3004008B4004108B5000130B60007
:10061800350DB50CB40CB30CB20CB60B0C2B35085D
:10062800C1003408C0003308BF003208BE000130E2
:10063800C2070318C30A0030C3074308803AFF0003
:1006480080307F02031D2A2BFF304202031C2D2B12
:100658002E2B392B7F3083120313C1008030C0004A
:100668000030BF000030BE006E2B83120313430816
:10067800803AFF0080307F02031D442B0130420284
:100688000318472B482B542B003083120313C10047
:100698000030C0000030BF000030BE00B7016E2B34
:1006A800831203134208B2003208BD00FF30BE05B2
:1006B800FF30BF057F30C0050030C1053D1C652BEC
:1006C800662B672BC0173D08B2000310320CB3002D
:1006D8003308C1003708B2003208C1044108AD0030
:1006E8004008AC003F08AB003E08AA00080083128F
:1006F8000313DC0003305106031D832B842B142CB9
:10070800D701D70A45305002031C8B2B8C2BCB2BDF
:100718005008BC3EF300FF3003180030F400F50128
:10072800F41BF5037508F60001300A128A116026D9
:100738000A128A11760883120313B1007508B000F3
:100748007408AF007308AE003F30AD004D30AC0008
:100758009130AB006830AA000A128A111A200A12D6
:100768008A11831203132D08C7002C08C6002B0812
:10077800C5002A08C4000A128A111C270A128A1105
:10078800831203134508DB004408DA00622C443066
:1007980050020318D02BD12B112C4530D200500811
:1007A8005202F300F401031CF403F501F41BF503F2
:1007B8007508F60001300A128A1160260A128A1199
:1007C800760883120313B1007508B0007408AF00EF
:1007D8007308AE003F30AD004D30AC009130AB0037
:1007E8006830AA000A128A111A200A128A11831282
:1007F80003132D08C7002C08C6002B08C5002A08BB
:10080800C4000A128A111C270A128A1183120313C0
:100818004508DB004408DA00622CDA01DB01622CAF
:100828005103031D182C192C5A2CD7015008D2003B
:10083800D301D401D5015508F6005408F500530832
:10084800F4005208F30001300A128A1160260A12D5
:100858008A11760883120313B1007508B000740872
:10086800AF007308AE003F30AD00FB30AC00023083
:10087800AB000C30AA000A128A111A200A128A1137
:10088800831203132D08C7002C08C6002B08C500C7
:100898002A08C4000A128A111C270A128A11831214
:1008A80003134508DB004408DA00622CD70150081E
:1008B800D200D3015208DA005308DB006430F30099
:1008C8000030F4005B08F6005A08F5000A128A1591
:1008D800BA270A128A11730883120313D200520826
:1008E800D8005808D200D3015208F3005308F40086
:1008F8009C30F500FF30F6000A128A158F270A127D
:100908008A11831203135A087307DA005B08031865
:100918005B0A7407DB000A30F3000030F4005B0860
:10092800F6005A08F5000A128A15BA270A128A111F
:10093800730883120313D2005208D9005908D20051
:10094800D3015208F3005308F400F630F500FF30E5
:10095800F6000A128A158F270A128A1183120313C6
:100968005A087307DA005B0803185B0A7407DB0090
:100978005A08D2005208D6005808303ED200520811
:10098800D8005908303ED2005208D9005608303EE7
:10099800D2005208D60003305106031DD42CD52CA2
:1009A800EC2C443050020318DA2CDB2CEC2C4F08CA
:1009B800D2005208F7005C080A128A1500270A12AA
:1009C8008A1114300A128A153D270A128A11082D35
:1009D80003305106031DF12CF22C082D443050022F
:1009E800031CF72CF82C082D4F08D2005208F700EA
:1009F8005C080A128A1500270A128A1112300A1294
:100A08008A153D270A128A118312031357084F07C4
:100A1800D2005208F7005C080A128A1500270A1249
:100A28008A118312031358080A128A159D260A127E
:100A38008A11831203135103031D232D242D362DF0
:100A480057084F07013ED2005208F7005C080A1207
:100A58008A1500270A128A1116300A128A153D27AC
:100A68000A128A11831203135108031D3C2D3E2DCF
:100A780001303F2D00304F07013ED2005208F700E9
:100A88005C080A128A1500270A128A1183120313B6
:100A980059080A128A159D260A128A11831203130D
:100AA8005108031D582D5A2D01305B2D00304F077A
:100AB800023ED2005208F7005C080A128A15002785
:100AC8000A128A118312031356080A128A159D26E0
:100AD8000A128A11831203135103031D742D752DF5
:100AE8008D2D5108031D792D7B2D01307C2D003073
:100AF8004F07033ED2005208F7005C080A128A1515
:100B080000270A128A1118300A128A153D270A127C
:100B18008A1108000A128A15E3260A128A110A1293
:100B28008A1198270A128A110A128A1582260A122D
:100B38008A1183120313851585100330831203135A
:100B4800DE009730DD00DD0BA72DDE0BA72D013071
:100B58000A128A1575260A128A110A128A11F527AD
:100B68000A128A1183120313DD005D08FA000330AC
:100B780083120313DE009730DD00DD0BC12DDE0B81
:100B8800C12D831203138514051103308312031337
:100B9800DE009730DD00DD0BCF2DDE0BCF2D0230D0
:100BA8000A128A1575260A128A110A128A11F5275D
:100BB8000A128A1183120313DD005D08F90003305D
:100BC80083120313DE009730DD00DD0BE92DDE0B09
:100BD800E92D8312031305158511033083120313BE
:100BE800DE009730DD00DD0BF72DDE0BF72D023030
:100BF8000A128A1575260A128A110A128A11F5270D
:100C08000A128A1183120313DD005D08F80003300D
:100C180083120313DE009730DD00DD0B112EDE0B8F
:100C2800112E7808831203138600F701F70A0130A2
:100C38000A128A1500270A128A1101300A128A1527
:100C48003D270A128A1183120313CF01CF0A7A08AB
:100C5800DD005D08D000D101D10A02300A128A11E4
:100C68007B230A128A11083083120313DD005D0802
:100C7800CF007908DE005E08D000D10102300A12E8
:100C88008A117B230A128A110D3083120313DD00A7
:100C98005D08CF007808DE005E08D0000330DF0072
:100CA8005F08D10002300A128A117B230A128A11C6
:100CB8009D2D0A128A110C2883120313A4002408FC
:100CC8000319672E682E7C2EF61F6B2E6C2E7C2E39
:100CD8007309A6007409A7007509A8007609A90078
:100CE800A60A0319A70A0319A80A0319A90A842E30
:100CF8007608A9007508A8007408A7007308A6005C
:100D08007608750474047304031D8B2E8C2E952E9F
:100D18000030F6000030F5000030F4000030F30039
:100D28001B2F9630A0002008A500A72E0130A00098
:100D38002008A50701300310A90CA80CA70CA60CC5
:100D4800FF3E031D9F2EFE302905031DAC2EAD2E40
:100D58009A2EC92E0130A0002008A5070130A60749
:100D6800003003180130A707003003180130A80726
:100D7800003003180130A90701300310A90CA80C92
:100D8800A70CA60CFF3E031DC12EFF302905031D2D
:100D9800CE2ECF2EAE2EDB2E0130A5020130A000C4
:100DA8000310A60DA70DA80DA90DA00BD42EA81BE6
:100DB800DE2EDF2EE52E023025020318E42EE52E66
:100DC800D02E2518E82EE92EF12EFF30A605FF308B
:100DD800A7057F30A805FF30A9050310A50C250835
:100DE800A000A101A201A30118300310A00DA10DBC
:100DF800A20DA30DFF3E031DF92E2008A60421080D
:100E0800A7042208A8042308A904240803190D2FFD
:100E18000E2F132FF61F112F122F132FA917290882
:100E2800F6002808F5002708F4002608F300080053
:100E3800031083120313460D470DC8004808CE005F
:100E48004E08031D282F292F322F0030C7000030ED
:100E5800C6000030C5000030C400972F4408C80001
:100E68004508C9004608CA004708CB001F300310D0
:100E7800CB0CCA0CC90CC80CFF3E031D3B2F4808FD
:100E8800CC004C08CD00C617FF30C405FF30C5059F
:100E9800FF30C6050030C7059630CE02CE1F552F4D
:100EA800562F702F4E08803A973E03185C2F5D2FFF
:100EB8005E2F292F01300310C70CC60CC50CC40CBB
:100EC800FF3E031D5F2F0130C8004808CE07031DF1
:100ED8006E2F6F2F5E2F872F20304E02031C752F29
:100EE800762F822F292F0130C8000310C40DC50D9D
:100EF800C60DC70DC80B792F0130CE024E08031D51
:100F0800862F872F772F4D0803198B2F8C2F972F1C
:100F1800C409C509C609C709C40A0319C50A0319BA
:100F2800C60A0319C70A0800273083120313A10051
:100F3800F430A000A00B9E2FA10B9E2F00000030C4
:100F48000A128A156F260A128A1134308312031383
:100F5800A100F130A000A00BAF2FA10BAF2F3030B4
:100F68000A128A15C9260A128A110D308312031330
:100F7800A100FB30A000A00BBF2FA10BBF2F30306A
:100F88000A128A15C9260A128A11693083120313B4
:100F9800A000A00BCD2FD02F30300A128A15C926F9
:100FA8000A128A1138300A128A15C9260A128A11B9
:100FB80010300A128A15C9260A128A1101300A123B
:100FC8008A15C9260A128A1106300A128A15C926F4
:100FD8000A128A110C300A128A15C9260A128A11B5
:100FE80008000A128A157B260A128A118312031333
:040FF80013080800D2
:1010000008308A000408840A8207003420345334EC
:1010100031343A34203420342034533432343A34A6
:10102000203420342034533433343A3400342034E0
:0E10300000342D3400342E3400345634003495
:101CDE00F30073088312031388000800F3007308DF
:101CEE00831203139300080083160313141C802E13
:101CFE00812E7B2E080000300A128A15C9260A1280
:101D0E008A1501300A128A15C9260A128A15080088
:101D1E0083120313981C942E952E972E18121816B4
:101D2E008C1E9A2E9B2E972E1A080800F5008312F1
:101D3E000313051675080A128A156F260A128A15DC
:101D4E008312031385161A30F400F40BAC2E000028
:101D5E008312031385120800F600831603138712ED
:101D6E00761DBA2EBB2EBF2E750894008715C32E76
:101D7E007308750494008711760874048312031394
:101D8E0094000800F60083120313051276080A1257
:101D9E008A156F260A128A158312031385160B30C5
:101DAE00F5006230F400F40BDA2EF50BDA2E00009B
:101DBE008312031385120800831603138701071677
:101DCE008717880183160317880189018316031369
:101DDE0085018601FA01F901F8018B170B17F30142
:101DEE00F401F50120300A128A15B3260A128A155B
:101DFE00080083120313A0002003031D072F082FD2
:101E0E00102F77087F3E0A128A15C9260A128A15E4
:101E1E001D2F02302006031D152F162F1D2F77089C
:101E2E00BF3E0A128A15C9260A128A1508008312A5
:101E3E0003138C1E232F242F362F0A128A158F265A
:101E4E000A128A15F000700883120313E000C730DF
:101E5E00F000F00B302F332F831203138C12720805
:101E6E008A00710E8300FE0E7E0E0900831203138C
:101E7E00A200A001A101582F2008220784000A12F7
:101E8E008A1500200A128A150A128A159D260A1230
:101E9E008A15013083120313A0070318A10A00301C
:101EAE00A1072008220784000A128A1500200A12B0
:101EBE008A15003A031D642F652F432F08008312E5
:101ECE000313A400A001A1017308F500F601750823
:101EDE00A2007608A300241C752F762F7C2F2208D3
:101EEE00A0070318A10A2308A10701300310A20DB1
:101EFE00A30DFF3E031D7D2F0310A40C2408031D0C
:101F0E00892F8A2F722F2108F4002008F300080071
:101F1E0083120313A001A101731C962F972F9F2FDD
:101F2E00750883120313A0070318A10A7608A107E8
:101F3E0001300310F50DF60DFF3E031DA02F0130ED
:101F4E000310F40CF30CFF3E031DA72F730874044B
:101F5E00031DB22FB32F932F831203132108F40006
:101F6E002008F300080083120313A101A2017308D5
:101F7E0074040319C32FC42FFB2FA001A00AD22F64
:101F8E0001300310F30DF40DFF3E031DC82F013079
:101F9E00F7007708A007F41FD52FD62FC72F0130D3
:101FAE000310A10DA20DFF3E031DD72F740876025C
:101FBE00031DE32F73087502031CE62FE72FEE2F88
:101FCE007308F5027408031CF603F602211401309F
:101FDE000310F40CF30CFF3E031DEF2F0130A00293
:101FEE00031DFA2FFB2FD62F2208F4002108F30031
:021FFE000800D9
:04400E00F120FF3F5F
:00000001FF
