:020000040000FA
:060000000A128A110C280F
:10000800FE00030EF1000A08F2000A128A11292FD5
:100018000A128A110F28F901FA0183010A128A11BA
:10002800032E831203132D088039B2003208B7005B
:100038002D08B2003207B3003308BD00AC1F2528D5
:10004800262827283D143D0803192B282C283B284F
:100058003D0A031D3028312839280030AD00003012
:10006800AC000030AB000030AA00AC1743280030C9
:10007800AD000030AC000030AB000030AA00310801
:100088008039B2003208B7063108B2003207B3002F
:100098003308BC00B01F5128522853283C143C0890
:1000A80003195728582867283C0A031D5C285D282F
:1000B80065280030B1000030B0000030AF000030DB
:1000C800AE00B0176F280030B1000030B00000302B
:1000D800AF000030AE003C08031973287428792853
:1000E8003D08031D7828792882280030AD000030AB
:1000F800AC000030AB000030AA00752B2A08B20013
:100108003208F30030080A128A1198260A128A1156
:10011800740883120313C3007308C2004208B200B4
:10012800B301B401B5013508BB003408BA0033087F
:10013800B9003208B8004308B200B301B401B501F0
:100148003508C1003408C0003308BF003208BE00BB
:100158002B08B2003208F3002F080A128A119826D9
:100168000A128A11740883120313C3007308C200A9
:100178004208B200B301B401B5013208B807330828
:1001880003110318013E0319CA28B90734080311DB
:100198000318013E0319D128BA07350803110318BB
:1001A800013E0319D828BB074308B200B301B401C4
:1001B800B5013208BE07330803110318013E0319BD
:1001C800E628BF07340803110318013E0319ED2878
:1001D800C007350803110318013E0319F428C107A5
:1001E8002C08B2003208F3002E080A128A11982649
:1001F8000A128A11740883120313C3007308C20019
:100208004208B200B301B401B5013208B807330897
:1002180003110318013E03191229B9073408031101
:100228000318013E03191929BA07350803110318E1
:10023800013E03192029BB074308B200B301B401EA
:10024800B5013208BE07330803110318013E03192C
:100258002E29BF07340803110318013E0319352955
:10026800C007350803110318013E03193C29C107CB
:100278000830B2000310B80DB90DBA0DBB0DB20BA2
:100288003E292B08B2003208F3002E080A128A1100
:1002980098260A128A11740883120313C30073087C
:1002A800C2004208B2004308B300B401B5013208E5
:1002B800B807330803110318013E03196429B90765
:1002C800340803110318013E03196B29BA073508CE
:1002D80003110318013E03197229BB072A08B2004B
:1002E8003208F3002F080A128A1198260A128A1176
:1002F800740883120313C3007308C2004208B200D3
:100308004308B300B401B5013208B8073308031134
:100318000318013E03199129B9073408031103187A
:10032800013E03199829BA07350803110318013E3D
:1003380003199F29BB070830B2000310B80DB90D87
:10034800BA0DBB0DB20BA1292A08B2003208F3007E
:100358002E080A128A1198260A128A117408831222
:100368000313C3007308C2004208B2004308B30075
:10037800B401B5013208B807330803110318013E68
:100388000319C729B907340803110318013E0319D3
:10039800CE29BA07350803110318013E0319D529D8
:1003A800BB072B08B2003208F30030080A128A1182
:1003B80098260A128A11740883120313C30073085B
:1003C800C2004208B2004308B300B401B5013208C4
:1003D800BE07330803110318013E0319F429BF07A8
:1003E800340803110318013E0319FB29C007350817
:1003F80003110318013E0319022AC1072C08B20091
:100408003208F3002F080A128A1198260A128A1154
:10041800740883120313C3007308C2004208B200B1
:100428004308B300B401B5013208BE07330803110D
:100438000318013E0319212ABF07340803110318C2
:10044800013E0319282AC007350803110318013E85
:1004580003192F2AC1072C08B2003208F30030080C
:100468000A128A1198260A128A1174088312031331
:10047800C3007308C2004208B2004308B300B401C5
:10048800B50108300310B20DB30DB40DB50DFF3E24
:10049800031D462A3208BE07330803110318013E1C
:1004A8000319572ABF07340803110318013E03191B
:1004B8005E2AC007350803110318013E0319652A8F
:1004C800C1073808B2003908B3003A08B4003B083D
:1004D800B50018300310B50CB40CB30CB20CFF3EC9
:1004E800031D6E2A3208BE07330803110318013EA4
:1004F80003197F2ABF07340803110318013E0319A3
:10050800862AC007350803110318013E03198D2AEE
:10051800C1070830B2000310B80DB90DBA0DBB0DF4
:10052800B20B8F2A3D083C07B200B301B30D320865
:10053800823EC20033080318013EFF3EC300C12AB1
:100548000130B2000310BE0DBF0DC00DC10DB20BBE
:10055800A62ABB1FB02AB12AB22A3E140130B20023
:100568000310B80DB90DBA0DBB0DB20BB42AFF308C
:10057800C2070318C30AFF30C307C01FC42AC52A0D
:10058800A42ABC01BB1FC92ACA2AE62AFF3038059B
:10059800B200FF303905B300FF303A05B4007F30B0
:1005A8003B05B50035083404330432040319DD2A49
:1005B800DE2AE12ABC01BC0AE62A3E1CE42AE52A16
:1005C800E62ADE2A3C080319EA2AEB2A1C2B01300A
:1005D800BE07003003180130BF0700300318013090
:1005E800C007003003180130C107411CFC2AFD2A4E
:1005F8001C2B3E08B2003F08B3004008B400410875
:10060800B5000130B600350DB50CB40CB30CB20C06
:10061800B60B072B3508C1003408C0003308BF00EB
:100628003208BE000130C2070318C30A0030C307EE
:100638004308803AFF0080307F02031D252BFF30DE
:100648004202031C282B292B342B7F3083120313DF
:10065800C1008030C0000030BF000030BE00692BF0
:10066800831203134308803AFF0080307F02031D82
:100678003F2B013042020318422B432B4F2B0030F3
:1006880083120313C1000030C0000030BF000030E7
:10069800BE00B701692B831203134208B200320867
:1006A800BD00FF30BE05FF30BF057F30C0050030FC
:1006B800C1053D1C602B612B622BC0173D08B200A1
:1006C8000310320CB3003308C1003708B2003208F7
:1006D800C1044108AD004008AC003F08AB003E082B
:1006E800AA00080083120313D6004E08CF00D001D9
:1006F800D101D2015208F6005108F5005008F40063
:100708004F08F30001300A128A1175240A128A115F
:10071800760883120313B1007508B0007408AF009F
:100728007308AE003F30AD00FB30AC000230AB00C8
:100738000C30AA000A128A1115200A128A11831293
:1007480003132D08C7002C08C6002B08C5002A086B
:10075800C4000A128A1131250A128A11831203135E
:100768004508D8004408D7006430F3000030F4008E
:100778005808F6005708F5000A128A1152260A127C
:100788008A11730883120313CF004F08D40054084A
:10079800CF00D0014F08F3005008F4009C30F5005A
:1007A800FF30F6000A128A11C1260A128A11831232
:1007B800031357087307D70058080318580A740713
:1007C800D8000A30F3000030F4005808F600570843
:1007D800F5000A128A1152260A128A117308831226
:1007E8000313CF004F08D5005508CF00D0014F089C
:1007F800F3005008F400F630F500FF30F6000A1256
:100808008A11C1260A128A11831203135708730723
:10081800D70058080318580A7407D8005708CF009B
:100828004F08D3005408303ECF004F08D400550875
:10083800303ECF004F08D5005308303ECF004F0858
:10084800D3004D08CF004F08F70056080A128A1146
:1008580046270A128A118312031354080A128A11AE
:1008680093270A128A11831203134D08013ECF0001
:100878004F08F70056080A128A1146270A128A11E9
:1008880010300A128A11E6260A128A1183120313FB
:100898004D08023ECF004F08F70056080A128A1189
:1008A80046270A128A118312031355080A128A115D
:1008B80093270A128A11831203134D08033ECF00AF
:1008C8004F08F70056080A128A1146270A128A1199
:1008D8008312031353080A128A1193270A128A11E2
:1008E800080083120313A400240803197C2C7D2C10
:1008F800912CF61F802C812C912C7309A600740969
:10090800A7007509A8007609A900A60A0319A70A6D
:100918000319A80A0319A90A992C7608A9007508C9
:10092800A8007408A7007308A60076087504740464
:100938007304031DA02CA12CAA2C0030F600003053
:10094800F5000030F4000030F300302D9630A000A0
:100958002008A500BC2C0130A0002008A507013004
:100968000310A90CA80CA70CA60CFF3E031DB42C61
:10097800FE302905031DC12CC22CAF2CDE2C013002
:10098800A0002008A5070130A60700300318013091
:10099800A707003003180130A807003003180130FA
:1009A800A90701300310A90CA80CA70CA60CFF3E40
:1009B800031DD62CFF302905031DE32CE42CC32C82
:1009C800F02C0130A5020130A0000310A60DA70DE0
:1009D800A80DA90DA00BE92CA81BF32CF42CFA2CBC
:1009E800023025020318F92CFA2CE52C2518FD2CC9
:1009F800FE2C062DFF30A605FF30A7057F30A80581
:100A0800FF30A9050310A50C2508A000A101A2012B
:100A1800A30118300310A00DA10DA20DA30DFF3ED8
:100A2800031D0E2D2008A6042108A7042208A804E7
:100A38002308A90424080319222D232D282DF61F85
:100A4800262D272D282DA9172908F6002808F50096
:100A58002708F4002608F300080003108312031384
:100A6800460D470DC8004808F8007808031D3D2DBD
:100A78003E2D472D0030C7000030C6000030C500AD
:100A88000030C400AC2D4408C8004508C900460819
:100A9800CA004708CB001F300310CB0CCA0CC90C86
:100AA800C80CFF3E031D502D4808CC004C08F70029
:100AB800C617FF30C405FF30C505FF30C605003036
:100AC800C7059630F802F81F6A2D6B2D852D78081A
:100AD800803A973E0318712D722D732D3E2D0130EB
:100AE8000310C70CC60CC50CC40CFF3E031D742DA7
:100AF8000130C8004808F807031D832D842D732D85
:100B08009C2D20307802031C8A2D8B2D972D3E2D8D
:100B18000130C8000310C40DC50DC60DC70DC80BA4
:100B28008E2D0130F8027808031D9B2D9C2D8C2DED
:100B380077080319A02DA12DAC2DC409C509C60934
:100B4800C709C40A0319C50A0319C60A0319C70A3B
:100B580008002730F800F530F700F70BB12DF80B37
:100B6800B12D00300A128A11C4270A128A113430B2
:100B7800F800F130F700F70BBF2DF80BBF2DC42D8F
:100B880030300A128A1162270A128A110D30F800D1
:100B9800FB30F700F70BCE2DF80BCE2DD32D3030D0
:100BA8000A128A1162270A128A116A30F700F70BB3
:100BB800DB2D000030300A128A1162270A128A11CE
:100BC80038300A128A1162270A128A1110300A1262
:100BD8008A1162270A128A1101300A128A116227C1
:100BE8000A128A1106300A128A1162270A128A1119
:100BF8000C300A128A1162270A128A1108000A1296
:100C08008A110B270A128A110A128A11AD250A12B3
:100C18008A110A128A11B7270A128A11F701F70AEC
:100C280001300A128A1146270A128A1101300A1263
:100C38008A11E6260A128A1183120313CD01CD0AFE
:100C48005D08D9005908CE0002300A128A117623AD
:100C58000A128A11063083120313D9005908CD00ED
:100C68005C08DA005A08CE0002300A128A1176238C
:100C78000A128A110B3083120313D9005908CD00C8
:100C88005B08DA005A08CE0002300A128A1176236D
:100C98000A128A110D2E0A128A110C2883120313C4
:100CA800A101A2017308740403195B2E5C2E932E14
:100CB800A001A00A6A2E01300310F30DF40DFF3EC7
:100CC800031D602E0130F7007708A007F41F6D2E72
:100CD8006E2E5F2E01300310A10DA20DFF3E031DE5
:100CE8006F2E74087602031D7B2E73087502031C91
:100CF8007E2E7F2E862E7308F5027408031CF603D9
:100D0800F602211401300310F40CF30CFF3E031D0E
:100D1800872E0130A002031D922E932E6E2E2208DC
:100D2800F4002108F300080083120313A400A001B3
:100D3800A1017308F500F6017508A2007608A30062
:100D4800241CA72EA82EAE2E2208A0070318A10A3D
:100D58002308A10701300310A20DA30DFF3E031DB8
:100D6800AF2E0310A40C2408031DBB2EBC2EA42EEA
:100D78002108F4002008F3000800F701F801731CAB
:100D8800C62EC72ECD2E7508F7070318F80A760861
:100D9800F80701300310F50DF60DFF3E031DCE2EAA
:100DA80001300310F40CF30CFF3E031DD52E73081D
:100DB8007404031DE02EE12EC32E7808F400770892
:100DC800F3000800F800F601F701FD2E7608780711
:100DD80084000A128A117C270A128A110A128A11BF
:100DE80093270A128A110130F6070318F70A003010
:100DF800F7077608780784000A128A117C270A12F6
:100E08008A11003A031D092F0A2FEA2E08008316BB
:100E1800031387018717880183160317880189013F
:100E280083160313850186018B170B171930F300FE
:100E3800730883120313DD008130F3007308DC00AC
:100E4800FF30F3007308DB000800831203138C1EC5
:100E58002E2F2F2F3F2F0A128A11A9270A128A1123
:100E6800F0007008F900C730F000F00B392F3C2F64
:100E7800831203138C1272088A00710E8300FE0E0F
:100E88007E0E0900F8007803031D4B2F4C2F542FBA
:100E980077087F3E0A128A1162270A128A11612F87
:100EA80002307806031D592F5A2F612F7708BF3E4D
:100EB8000A128A1162270A128A110800F6008312A0
:100EC8000313061076080A128A11C4270A128A1117
:100ED8008312031386140B30F5006230F400F40B10
:100EE800732FF50B732F000083120313861008006D
:100EF80007308A000408840A8207003420345334F7
:100F080031343A3420342034533432343A342034AF
:100F18002034533433343A3400342E340034F5005A
:100F280083120313061475080A128A11C4270A12B9
:100F38008A118312031386141A30F400F40BA22FBB
:100F48000000831203138610080083120313981CF1
:100F5800AE2FAF2FB12F181218168C1EB42FB52F25
:100F6800B12F1A08080000300A128A1162270A12E3
:100F78008A1101300A128A1162270A128A1108009E
:0C0F8800F30073088312031388000800B4
:04400E00F120FF3F5F
:00000001FF
