:020000040000FA
:060000000A128A110C280F
:10000800FE00030EF1000A08F2000A128A156E2E8D
:100018000A128A110F28F901FA0183120313E00169
:10002800E101E20183010A128A11BE2D8312031332
:100038002D088039B2003208B7002D08B200320707
:10004800B3003308BD00AC1F2A282B282C283D14E8
:100058003D0803193028312840283D0A031D35285A
:1000680036283E280030AD000030AC000030AB0030
:100078000030AA00AC1748280030AD000030AC00B2
:100088000030AB000030AA0031088039B2003208D5
:10009800B7063108B2003207B3003308BC00B01FFE
:1000A8005628572858283C143C0803195C285D2812
:1000B8006C283C0A031D612862286A280030B100B8
:1000C8000030B0000030AF000030AE00B017742828
:1000D8000030B1000030B0000030AF000030AE009A
:1000E8003C080319782879287E283D08031D7D28B7
:1000F8007E2887280030AD000030AC000030AB000F
:100108000030AA007A2B2A08B2003208F30030081F
:100118000A128A1515270A128A1174088312031302
:10012800C3007308C2004208B200B301B401B501AC
:100138003508BB003408BA003308B9003208B800E3
:100148004308B200B301B401B5013508C100340851
:10015800C0003308BF003208BE002B08B2003208C6
:10016800F3002F080A128A1515270A128A11740833
:1001780083120313C3007308C2004208B200B3011C
:10018800B401B5013208B807330803110318013E5A
:100198000319CF28B907340803110318013E0319BE
:1001A800D628BA07350803110318013E0319DD28BC
:1001B800BB074308B200B301B401B5013208BE075A
:1001C800330803110318013E0319EB28BF0734084D
:1001D80003110318013E0319F228C007350803115B
:1001E8000318013E0319F928C1072C08B200320888
:1001F800F3002E080A128A1515270A128A117408A4
:1002080083120313C3007308C2004208B200B3018B
:10021800B401B5013208B807330803110318013EC9
:1002280003191729B907340803110318013E0319E4
:100238001E29BA07350803110318013E0319252999
:10024800BB074308B200B301B401B5013208BE07C9
:10025800330803110318013E03193329BF07340873
:1002680003110318013E03193A29C0073508031181
:100278000318013E03194129C1070830B2000310D1
:10028800B80DB90DBA0DBB0DB20B43292B08B2003E
:100298003208F3002E080A128A1515270A128A1145
:1002A800740883120313C3007308C2004208B20023
:1002B8004308B300B401B5013208B8073308031185
:1002C8000318013E03196929B907340803110318F3
:1002D800013E03197029BA07350803110318013EB6
:1002E80003197729BB072A08B2003208F3002F0840
:1002F8000A128A1515270A128A1174088312031321
:10030800C3007308C2004208B2004308B300B40136
:10031800B5013208B807330803110318013E031961
:100328009629B907340803110318013E03199D29BA
:10033800BA07350803110318013E0319A429BB079E
:100348000830B2000310B80DB90DBA0DBB0DB20BD1
:10035800A6292A08B2003208F3002E080A128A15C4
:1003680015270A128A11740883120313C30073082D
:10037800C2004208B2004308B300B401B501320814
:10038800B807330803110318013E0319CC29B9072C
:10039800340803110318013E0319D329BA07350895
:1003A80003110318013E0319DA29BB072B08B20011
:1003B8003208F30030080A128A1515270A128A1122
:1003C800740883120313C3007308C2004208B20002
:1003D8004308B300B401B5013208BE07330803115E
:1003E8000318013E0319F929BF073408031103183C
:1003F800013E0319002AC007350803110318013EFE
:100408000319072AC1072C08B2003208F3002F0885
:100418000A128A1515270A128A11740883120313FF
:10042800C3007308C2004208B2004308B300B40115
:10043800B5013208BE07330803110318013E03193A
:10044800262ABF07340803110318013E03192D2A71
:10045800C007350803110318013E0319342AC107E0
:100468002C08B2003208F30030080A128A15152742
:100478000A128A11740883120313C3007308C20096
:100488004208B2004308B300B401B50108300310B4
:10049800B20DB30DB40DB50DFF3E031D4B2A320846
:1004A800BE07330803110318013E03195C2ABF076E
:1004B800340803110318013E0319632AC0073508DD
:1004C80003110318013E03196A2AC1073808B2004C
:1004D8003908B3003A08B4003B08B50018300310D7
:1004E800B50CB40CB30CB20CFF3E031D732A3208D2
:1004F800BE07330803110318013E0319842ABF07F6
:10050800340803110318013E03198B2AC007350864
:1005180003110318013E0319922AC1070830B200DB
:100528000310B80DB90DBA0DBB0DB20B942A3D08D6
:100538003C07B200B301B30D3208823EC200330853
:100548000318013EFF3EC300C62A0130B200031063
:10055800BE0DBF0DC00DC10DB20BAB2ABB1FB52A16
:10056800B62AB72A3E140130B2000310B80DB90DEF
:10057800BA0DBB0DB20BB92AFF30C2070318C30A64
:10058800FF30C307C01FC92ACA2AA92ABC01BB1F3A
:10059800CE2ACF2AEB2AFF303805B200FF303905C2
:1005A800B300FF303A05B4007F303B05B50035088D
:1005B8003404330432040319E22AE32AE62ABC018C
:1005C800BC0AEB2A3E1CE92AEA2AEB2AE32A3C0861
:1005D8000319EF2AF02A212B0130BE070030031837
:1005E8000130BF07003003180130C007003003187E
:1005F8000130C107411C012B022B212B3E08B20000
:100608003F08B3004008B4004108B5000130B60007
:10061800350DB50CB40CB30CB20CB60B0C2B35085D
:10062800C1003408C0003308BF003208BE000130E2
:10063800C2070318C30A0030C3074308803AFF0003
:1006480080307F02031D2A2BFF304202031C2D2B12
:100658002E2B392B7F3083120313C1008030C0004A
:100668000030BF000030BE006E2B83120313430816
:10067800803AFF0080307F02031D442B0130420284
:100688000318472B482B542B003083120313C10047
:100698000030C0000030BF000030BE00B7016E2B34
:1006A800831203134208B2003208BD00FF30BE05B2
:1006B800FF30BF057F30C0050030C1053D1C652BEC
:1006C800662B672BC0173D08B2000310320CB3002D
:1006D8003308C1003708B2003208C1044108AD0030
:1006E8004008AC003F08AB003E08AA00080083128F
:1006F8000313DA0003304F06031D832B842B142CBD
:10070800D401D40A45304E02031C8B2B8C2BCB2BE7
:100718004E08BC3EF300FF3003180030F400F5012A
:10072800F41BF5037508F60001300A128A11D52664
:100738000A128A11760883120313B1007508B000F3
:100748007408AF007308AE003F30AD004D30AC0008
:100758009130AB006830AA000A128A111A200A12D6
:100768008A11831203132D08C7002C08C6002B0812
:10077800C5002A08C4000A128A1584270A128A1199
:10078800831203134508D9004408D800622C44306A
:100798004E020318D02BD12B112C4530D0004E0817
:1007A8005002F300F401031CF403F501F41BF503F4
:1007B8007508F60001300A128A11D5260A128A1124
:1007C800760883120313B1007508B0007408AF00EF
:1007D8007308AE003F30AD004D30AC009130AB0037
:1007E8006830AA000A128A111A200A128A11831282
:1007F80003132D08C7002C08C6002B08C5002A08BB
:10080800C4000A128A1584270A128A118312031354
:100818004508D9004408D800622CD801D901622CB7
:100828004F03031D182C192C5A2CD4014E08D00044
:10083800D101D201D3015308F6005208F50051083E
:10084800F4005008F30001300A128A11D5260A1262
:100858008A11760883120313B1007508B000740872
:10086800AF007308AE003F30AD00FB30AC00023083
:10087800AB000C30AA000A128A111A200A128A1137
:10088800831203132D08C7002C08C6002B08C500C7
:100898002A08C4000A128A1584270A128A118312A8
:1008A80003134508D9004408D800622CD4014E0827
:1008B800D000D1015008D8005108D9006430F300A5
:1008C8000030F4005908F6005808F5000A128A1595
:1008D8003E270A128A11730883120313D0005008A6
:1008E800D6005608D000D1015008F3005108F40092
:1008F8009C30F500FF30F6000A128A15F0260A121D
:100908008A118312031358087307D800590803186B
:10091800590A7407D9000A30F3000030F400590866
:10092800F6005808F5000A128A153E270A128A119D
:10093800730883120313D0005008D7005708D0005B
:10094800D1015008F3005108F400F630F500FF30EB
:10095800F6000A128A15F0260A128A118312031366
:1009680058087307D80059080318590A7407D9009A
:100978005808D0005008D5005608303ED00050081E
:10098800D6005708303ED0005008D7005508303EF2
:10099800D0005008D50003304F06031DD42CD52CA9
:1009A800F22C44304E020318DA2CDB2CF22C4D08C2
:1009B800D0005008F7005A080A128A1552260A125F
:1009C8008A1125300A128A15CB260A128A11253077
:1009D8000A128A158D260A128A11142D03304F0621
:1009E800031DF72CF82C142D44304E02031CFD2C4B
:1009F800FE2C142D4D08D0005008F7005A080A1292
:100A08008A1552260A128A1121300A128A15CB2613
:100A18000A128A1121300A128A158D260A128A11A1
:100A28008312031354084D07D0005008F7005A08E2
:100A38000A128A1552260A128A11831203135608BB
:100A48000A128A1506260A128A11831203135608F7
:100A58000A128A15E1250A128A11831203134F0319
:100A6800031D372D382D502D54084D07013ED00059
:100A78005008F7005A080A128A1552260A128A11D3
:100A880027300A128A15CB260A128A1127300A1231
:100A98008A158D260A128A11831203134F08031D23
:100AA800562D582D0130592D00304D07013ED000EC
:100AB8005008F7005A080A128A1552260A128A1193
:100AC8008312031357080A128A1506260A128A1176
:100AD8008312031357080A128A15E1250A128A118C
:100AE800831203134F08031D7A2D7C2D01307D2DB1
:100AF80000304D07023ED0005008F7005A080A128D
:100B08008A1552260A128A118312031355080A12EB
:100B18008A1506260A128A118312031355080A1227
:100B28008A15E1250A128A11831203134F03031D44
:100B38009E2D9F2DBD2D4F08031DA32DA52D0130E2
:100B4800A62D00304D07033ED0005008F7005A0884
:100B58000A128A1552260A128A1129300A128A158F
:100B6800CB260A128A1129300A128A158D260A12F2
:100B78008A1108000A128A15AC260A128A110A126A
:100B88008A1191270A128A110A128A1536260A1220
:100B98008A110A128A15EB250A128A118312031385
:100BA80085158510033083120313DC009730DB00B2
:100BB800DB0BDC2DDC0BDC2D01300A128A15CB2572
:100BC8000A128A110A128A15D8250A128A11831262
:100BD8000313DB005B08E200033083120313DC001D
:100BE8009730DB00DB0BF62DDC0BF62D831203139D
:100BF80085140511033083120313DC009730DB00E2
:100C0800DB0B042EDC0B042E02300A128A15CB25CE
:100C18000A128A110A128A15D8250A128A11831211
:100C28000313DB005B08E100033083120313DC00CD
:100C38009730DB00DB0B1E2EDC0B1E2E83120313FA
:100C480005158511033083120313DC009730DB0090
:100C5800DB0B2C2EDC0B2C2E02300A128A15CB252E
:100C68000A128A110A128A15D8250A128A118312C1
:100C78000313DB005B08E000033083120313DC007E
:100C88009730DB00DB0B462EDC0B462E831203135A
:100C980060088600F701F70A01300A128A15522601
:100CA8000A128A1101300A128A15CB260A128A11F1
:100CB8001E300A128A158D260A128A11831203130E
:100CC800CD01CD0A6208DB005B08CE00CF01CF0A58
:100CD80002300A128A117B230A128A1112300A1270
:100CE8008A158D260A128A11083083120313DB0035
:100CF8005B08CD006108DC005C08CE00CF01023043
:100D08000A128A117B230A128A1118300A128A15CC
:100D18008D260A128A110D3083120313DB005B083B
:100D2800CD006008DC005C08CE000330DD005D0803
:100D3800CF0002300A128A117B230A128A1103306B
:100D480083120313DD000830DC007630DB00DB0B98
:100D5800AB2EDC0BAB2EDD0BAB2E00008312031386
:100D6800DE01DF0123300A128A158D260A128A1144
:100D7800013083120313DE070318DF0A0030DF0790
:100D88005F08803AFF0080307F02031DCD2E0230BD
:100D98005E02031CD02ED12EB62ED22D0A128A1135
:100DA8000C2883120313A40024080319DC2EDD2E5B
:100DB800F12EF61FE02EE12EF12E7309A60074091C
:100DC800A7007509A8007609A900A60A0319A70AA9
:100DD8000319A80A0319A90AF92E7608A9007508A3
:100DE800A8007408A7007308A600760875047404A0
:100DF8007304031D002F012F0A2F0030F600003066
:100E0800F5000030F4000030F300902F9630A00079
:100E18002008A5001C2F0130A0002008A5070130DC
:100E28000310A90CA80CA70CA60CFF3E031D142F39
:100E3800FE302905031D212F222F0F2F3E2F0130B1
:100E4800A0002008A5070130A607003003180130CC
:100E5800A707003003180130A80700300318013035
:100E6800A90701300310A90CA80CA70CA60CFF3E7B
:100E7800031D362FFF302905031D432F442F232F31
:100E8800502F0130A5020130A0000310A60DA70DB8
:100E9800A80DA90DA00B492FA81B532F542F5A2F6B
:100EA800023025020318592F5A2F452F25185D2F78
:100EB8005E2F662FFF30A605FF30A7057F30A805F7
:100EC800FF30A9050310A50C2508A000A101A20167
:100ED800A30118300310A00DA10DA20DA30DFF3E14
:100EE800031D6E2F2008A6042108A7042208A804C1
:100EF8002308A90424080319822F832F882FF61F9B
:100F0800862F872F882FA9172908F6002808F500AB
:100F18002708F4002608F30008002730F800F53009
:100F2800F700F70B952FF80B952F00300A128A154A
:100F3800C5250A128A113430F800F130F700F70B92
:100F4800A32FF80BA32FA82F30300A128A151C26BE
:100F58000A128A110D30F800FB30F700F70BB22F98
:100F6800F80BB22FB72F30300A128A151C260A1236
:100F78008A116A30F700F70BBF2F000030300A12D1
:100F88008A151C260A128A1138300A128A151C265C
:100F98000A128A1110300A128A151C260A128A119E
:100FA80001300A128A151C260A128A1106300A1202
:100FB8008A151C260A128A110C300A128A151C2658
:100FC8000A128A110800F600831603138712761D89
:100FD800EE2FEF2FF32F750894008715F72F73085E
:100FE800750494008711760874048312031394001F
:020FF8000800EF
:1010000008308A000408840A8207003420345334EC
:1010100031343A34203420342034533432343A34A6
:10102000203420342034533433343A3400342034E0
:10103000533432343A34203400342034533433348B
:101040003A3420340034533431343A3420340034C8
:101050000A3400342D3400342E3400345634003435
:101B8A00F30073088312031388000800F300730834
:101B9A00831203139300080083160313141CD62D13
:101BAA00D72DD12D08000A128A15D1250A128A15B5
:101BBA008312031313080800F300831203130C1E85
:101BCA00E72DE82DE22D73089900080000300A126B
:101BDA008A151C260A128A1501300A128A151C2631
:101BEA000A128A15080083120313981CFD2DFE2D74
:101BFA00002E181218168C1E032E042E002E1A08F8
:101C0A000800F50083120313051675080A128A15CF
:101C1A00C5250A128A158312031385161A30F40091
:101C2A00F40B152E00008312031385120800F60028
:101C3A0083120313051276080A128A15C5250A1299
:101C4A008A158312031385160B30F5006230F400EF
:101C5A00F40B2D2EF50B2D2E000083120313851283
:101C6A0008008316031398168C120C12181283128A
:101C7A0003139817831603131813831203131813E5
:101C8A008316031787113330831603139900181527
:101C9A009A018312031318160800F8007803031D2B
:101CAA00572E582E602E77087F3E0A128A151C2658
:101CBA000A128A156D2E02307806031D652E662ECD
:101CCA006D2E7708BF3E0A128A151C260A128A153B
:101CDA000800831203138C1A732E742E852E0A128F
:101CEA008A15F8250A128A15F0007008F900C7301B
:101CFA00F000F00B7E2E812E831203138C12862E97
:101D0A000C0872088A00710E8300FE0E7E0E09000E
:101D1A00F5009F2E750884000A128A1500200A12FF
:101D2A008A150A128A15E1250A128A150130F40069
:101D3A007408F507750884000A128A1500200A1229
:101D4A008A15003A031DAA2EAB2E8F2E0800831681
:101D5A00031387010716871788018316031788015B
:101D6A008901831603138501860183120313E20195
:101D7A00E101E0018B170B17F301F401F5012030A3
:101D8A000A128A11E7270A128A150800F800F601D2
:101D9A00F701E22E7608780784000A128A150020D5
:101DAA000A128A150A128A1506260A128A1501309B
:101DBA00F6070318F70A0030F70776087807840051
:101DCA000A128A1500200A128A15003A031DEE2EFD
:101DDA00EF2ECF2E0800F701F801731CF52EF62E10
:101DEA00FC2E7508F7070318F80A7608F807013079
:101DFA000310F50DF60DFF3E031DFD2E01300310F5
:101E0A00F40CF30CFF3E031D042F73087404031D26
:101E1A000F2F102FF22E7808F4007708F30008002D
:101E2A0083120313A400A001A1017308F500F601AF
:101E3A007508A2007608A300241C242F252F2B2F17
:101E4A002208A0070318A10A2308A10701300310DA
:101E5A00A20DA30DFF3E031D2C2F0310A40C240872
:101E6A00031D382F392F212F2108F4002008F300F1
:101E7A00080083120313A101A20173087404031951
:101E8A00472F482F7F2FA001A00A562F0130031099
:101E9A00F30DF40DFF3E031D4C2F0130F7007708B8
:101EAA00A007F41F592F5A2F4B2F01300310A10DF1
:101EBA00A20DFF3E031D5B2F74087602031D672FD8
:101ECA0073087502031C6A2F6B2F722F7308F502B1
:101EDA007408031CF603F602211401300310F40CF3
:101EEA00F30CFF3E031D732F0130A002031D7E2F4A
:101EFA007F2F5A2F2208F4002108F300080003104C
:101F0A0083120313460D470DC8004808F8007808E5
:101F1A00031D902F912F9A2F0030C7000030C60062
:101F2A000030C5000030C400FF2F4408C80045082F
:101F3A00C9004608CA004708CB001F300310CB0C63
:101F4A00CA0CC90CC80CFF3E031DA32F4808CC00BD
:101F5A004C08F700C617FF30C405FF30C505FF302F
:101F6A00C6050030C7059630F802F81FBD2FBE2FF0
:101F7A00D82F7808803A973E0318C42FC52FC62F4A
:101F8A00912F01300310C70CC60CC50CC40CFF3EC0
:101F9A00031DC72F0130C8004808F807031DD62FB4
:101FAA00D72FC62FEF2F20307802031CDD2FDE2F0C
:101FBA00EA2F912F0130C8000310C40DC50DC60DBC
:101FCA00C70DC80BE12F0130F8027808031DEE2F68
:101FDA00EF2FDF2F77080319F32FF42FFF2FC409F0
:101FEA00C509C609C709C40A0319C50A0319C60AD5
:061FFA000319C70A0800EC
:04400E00F120FF3F5F
:00000001FF
